:020000040800F2
:10000000581A002009010008D52D000827220008F1
:10001000152D0008D70C0008C137000800000000AB
:10002000000000000000000000000000A1320008F5
:10003000370D000800000000D72D0008A33200088B
:100040002301000823010008230100082301000800
:1000500023010008230100082301000823010008F0
:1000600023010008230100082301000823010008E0
:100070002301000823010008D90C0008E50C000842
:10008000F10C0008FD0C0008230100082301000802
:1000900023010008230100082301000823010008B0
:1000A00000000000230100082301000823010008CC
:1000B0002301000823010008230100082301000890
:1000C0002301000823010008230100082301000880
:1000D0002301000891370008A93700082301000810
:1000E0002301000823010008230100082301000860
:1000F00023010008DFF80CD000F000FC00480047A6
:10010000314F0008581A002006488047064800472B
:10011000FEE7FEE7FEE7FEE7FEE7FEE7FEE7FEE7B7
:10012000FEE7FEE71D330008F500000840EA010382
:100130009B0703D009E008C9121F08C0042AFAD29D
:1001400003E011F8013B00F8013B521EF9D2704761
:10015000D2B201E000F8012B491EFBD27047002209
:10016000F6E710B513460A4604461946FFF7F0FFB6
:10017000204610BD421C10F8011B0029FBD1801A3B
:10018000704730B504460020034600E05B1C9342F4
:1001900003D2E05CCD5C401BF8D030BD034611F8C3
:1001A000012B00F8012B002AF9D1184670472DE9E0
:1001B000F0410546002090460E46044600E0641CCF
:1001C00044450BD2285D00F0BCFA0746305D00F0D4
:1001D000B8FA381A02D1295D0029F0D1BDE8F081C2
:1001E0000FB400B58DB010A909900B9000914FF09D
:1001F000FF300A9000200C900548069005480790B3
:100200006A4609A80F9900F0B7FA0DB05DF814FB23
:1002100095070008B30700082DE9FF5F1D464FF062
:10022000FF3BD5E9014691465F464FF00008A969BA
:100230007F1C01988847296A824688470028F6D1A2
:10024000BAF1FF3F0CD024F4C064002E19DD600623
:1002500014D5BAF12B0F09D0BAF12D0F0ED103E04E
:10026000584604B0BDE8F09F44F48064A9697F1C3F
:1002700001988847761E8246002E02DDBAF1300FC3
:1002800003D0B9F1000F26D032E0A969761E44F4FC
:1002900000747F1C019888478246002E05DDBAF164
:1002A000780F06D0BAF1580F03D0B9F1000F10D073
:1002B0001EE0B9F1000F02D0B9F1100F18D1A969F1
:1002C000761E24F400747F1C019888478246102013
:1002D00002E0082000E00A20814609E008FB090846
:1002E000A969761E44F400747F1C019888478246F1
:1002F000002E05DD4946504600F029FA0028EDDAC7
:10030000E96901988847A00502D46FF00100A8E7C9
:10031000E00725D1600613D5600502D5C8F10000BD
:1003200000E0404629680A1D2A600968220501D5B7
:10033000087015E0220701D5088011E008600FE081
:100340002868011D29600068210502D580F8008019
:1003500006E0210702D5A0F8008001E0C0F8008087
:1003600038467EE72DE9FF5FD2E901A74FF000088C
:10037000916999461446DDF838B046460198884799
:10038000054659EA0B0005D009E0A169761C0198E1
:1003900088470546216A284688470028F5D1681C09
:1003A00003D05FEACA7005D015E04FF0FF3004B00B
:1003B000BDE8F09F2068011D2160D0F800800AE0B0
:1003C0005FEACA7001D108F8015BA169761C7F1E43
:1003D000019888470546002F1ADD681C18D0B9F12E
:1003E000000F0DD0E81705EBD060421120F01F0080
:1003F00059F822102A1A012090400142E0D107E06A
:10040000BBF1000FDCD1216A284688470028D7D0ED
:10041000E16901988847BBF1000F07D1002E05DD87
:100420005FEACA7002D1002188F80010A068B842C3
:1004300003DDBBF1000F03D017B16FF00100B6E789
:100440003046B4E72DE9FE4F804681EA0300C00F35
:100450000C46009021F0004123F00045B8EB02006B
:10046000A94105D24046214690461C460B4602460D
:1004700023F00040104347D0270DC7F30A00C3F311
:100480000A510290401A019040286BDAC3F313001E
:1004900040F4801B0098924620B10023D2EB030A5F
:1004A00063EB0B0B01985946C0F14002504600F037
:1004B00017F906460D4650465946019A00F02FF9A5
:1004C00010EB08006141002487EA115284EAE773C7
:1004D0001A4340D0009A62B3019A012A4FEA0752A8
:1004E00015DC001B61EB02014FF0004202EA0752EB
:1004F000CDE90042001C41F5801132462B4600F048
:10050000AFF903B0BDE8F08F40462146F9E7001B84
:1005100061EB0201001C41F5801300185B412018BB
:10052000A2F5001747EB030140EAD570B6196D41FB
:1005300011E06D084FEA360645EAC0754FEA0752EA
:10054000001B61EB0201001C41F5801149084FEAD4
:1005500030000019514132462B4603B0BDE8F04F40
:1005600000F06FB90098012240000023D0EB020296
:1005700063EBE073009821464FEAE074B8EB0000AB
:1005800061EB0401E9E783F000435BE781F00041A0
:1005900058E72DE9F04D81EA030404F0004B21F007
:1005A000004514464FF0000A23F0004150EA0502CE
:1005B00020D054EA01021DD0C5F30A570246C5F304
:1005C0001303C1F31300C1F30A5640F4801543F43A
:1005D0008013A7EB0608101BD64608F2FD3873EB14
:1005E000050002D308F1010801E092185B41B8F15F
:1005F000000F03DA00200146BDE8F08D00204FF423
:100600008011064684460EE0171B73EB050705D3E1
:10061000121B63EB050306434CEA010C49084FEA41
:10062000300092185B4150EA0107EDD152EA030015
:1006300012D082EA040083EA0501084305D0101BAA
:10064000AB4106D20122002306E000224FF0004316
:1006500002E06FF0010253101AEB06004CEB085158
:1006600010EB0A0041EB0B01BDE8F04D00F0E9B8DA
:10067000C10F80EAE0700844CA079623002100F009
:10068000B2B800F0004230F000400AD0C10D01F5D0
:100690006071C0F3160042EA0151C20840071143DD
:1006A000704700200146704701F0004330B421F04C
:1006B000004150EA010206D00A0DA2F56072C1F3B2
:1006C0001301002A02DC30BC00207047440F44EACA
:1006D000C104C100E01830BC00EBC25000F07AB891
:1006E000202A04DB203A00FA02F1002070479140F2
:1006F000C2F1200320FA03F3194390407047202AE7
:1007000004DB203A21FA02F00021704721FA02F3BB
:10071000D040C2F120029140084319467047202A78
:1007200006DBCB17203A41FA02F043EAE07306E019
:1007300041FA02F3D040C2F1200291400843194629
:100740007047A0F14101192900D8203070473A289C
:1007500000D2303820F02002412A01D3A2F1370024
:10076000884201D34FF0FF30704700000268114407
:100770001378016018467047D160044951610449FB
:10078000116200211161114600F0D0B86D07000818
:1007900021090008426842B1016811F8013B23B108
:1007A000521EC0E90012184670470121C160881E20
:1007B000704742685AB1C368016843B983688B4285
:1007C00005D0491E521CC0E90012002070474FF0AE
:1007D000FF3070470029A8BF7047401C490008BF80
:1007E00020F00100704710B4B0FA80FC00FA0CF061
:1007F00050EA010404BF10BC704749B1CCF1200499
:1008000021FA04F411FA0CF118BF01212143084325
:10081000A3EB0C01CB1D4FEA00614FEA102042BF51
:10082000002010BC704700EBC35010440029A4BF47
:1008300010BC7047401C490008BF20F0010010BCEC
:10084000704710B5141E73F1000408DA401C41F122
:10085000000192185B411A4301D120F0010010BD44
:100860002DE9F04D92469B4611B1B1FA81F202E0BA
:10087000B0FA80F220329046FFF732FF04460F466E
:1008800040EA0A0041EA0B0153465A46084313D096
:10089000114653EA010019D0C8F140025046FFF753
:1008A0002EFF05460E46504659464246FFF718FFB2
:1008B000084305D0012004E020463946BDE8F08D0C
:1008C0000020054346EAE0762C4337430A98630547
:1008D000E40AA0EB08000022FD0A44EA47540A306B
:1008E00002D500200146E9E7010510196941DDE95B
:1008F000084500196941BDE8F04DA2E7064C074DD7
:1009000006E0E06840F0010394E8070098471034DF
:10091000AC42F6D3FFF7F2FB8C620008AC62000831
:10092000C0B24FF4F05100F097B900002DE9F34F39
:100930008BB04FF0000801F10C000C464FF0010B9A
:1009400046460DF1080A019062690121019890471D
:10095000051E2DD0252D2CD0216A8847C0B1626993
:10096000012101989047216A88470028F7D1411E4C
:1009700062690198904700E0761CA1690B9888474E
:10098000216A88470028F7D1E1690B988847DBE79F
:10099000A1690B9888470746A84201D1761CD3E786
:1009A000E1690B9888477F1C02D1B8F1000F6FD026
:1009B00046E1002762693D463946019890472A285A
:1009C00004D162690121019890470125DFF88492E2
:1009D0006269012101989047A0F130010A290AD2E9
:1009E0004F45E5DC07EB870100EB4107303FDFD4E3
:1009F00045F01005ECE7E90601D46FF000476C28DC
:100A00000AD04C2814D0682815D06A280DD0742834
:100A10001CD07A281AD01DE0626901210198904704
:100A20006C2802D045F0040514E045F002050DE005
:100A300045F020050AE06269012101989047682885
:100A400002D045F0080505E045F400656269012122
:100A500001989047C4E9015765283DD019DC582812
:100A60007AD00CDC452837D004DC252826D0412854
:100A700031D131E046282FD047282CD12CE05B28FB
:100A800077D0612828D063287CD0642823D15AE00D
:100A9000D0E06F2848D008DC66281DD067281BD01E
:100AA000692821D06E2816D127E0702845D07328F8
:100AB00068D0752847D078280DD14DE0A1690B98F2
:100AC0008847054625283FF469AFE1690B988847B8
:100AD0006D1C3FF46AAFB3E023466A466FF0010035
:100AE0000B99AFF300809EE045F040006060A807DE
:100AF00023464FF0000236D43EE0E8077FF447AFCC
:100B00002068011D21600068290501D506701BE7DA
:100B1000290701D5068017E7A90703D5F117C0E912
:100B2000006111E706600FE745F040006060A8072C
:100B300023464FF0080216D41EE040F60E0125EAC7
:100B40000100606016E045F040006060A8072346A1
:100B50004FF00A0207D40FE045F040006060A8079C
:100B600008D5234610226FF001000B99AFF30080E7
:100B700059E007E0234610226FF001000B99FFF7C0
:100B80004BFB50E04FF000094F464B46632802D024
:100B90005B2806D040E0E80601D40120A0600127D0
:100BA0003AE062690121019890475E2805D14FF033
:100BB00001096269494601989047216939B90021C4
:100BC0000A46534643F82120491C0829FADBB0B3F2
:100BD000216969B9C11700EBD16253110AEB830196
:100BE00022F01F02821A01200B68904003430B6021
:100BF00062690121019890475D28E8D1B9F1000FA1
:100C000009D00020514651F82020D24341F820203D
:100C1000401C0828F7DB02AB224600976FF001006A
:100C20000B99FFF79FFB00280CDA401C08D1BBF1A1
:100C3000000F05D04FF0FF300DB0BDE8F08FFFE79B
:100C40004046F9E7E90701D108F1010806444FF0F1
:100C5000000B79E6CCCCCC0C7F2801D9002208E02F
:100C6000064A02EB5002C007127800D1120902F0C6
:100C70000F0201209040084070470000045C00080B
:100C800070B58C1810F8015B15F0070301D110F84E
:100C9000013B2A1106D110F8012B03E010F8016B7B
:100CA00001F8016B5B1EF9D12B0705D40023521EFE
:100CB0000DD401F8013BFAE710F8013BCB1A921C66
:100CC00003E013F8015B01F8015B521EF9D5A14264
:100CD000D8D3002070BDFEE7014800F0ABB800009B
:100CE0004C030020014800F0A5B8000008030020D4
:100CF000014800F09FB8000090030020014800F078
:100D000099B80000D403002030B590F8404004F0BA
:100D10001C050124AC40C56B6C60046863604368CB
:100D2000102B036803D099600068C26030BD9A60E0
:100D30000068C16030BD704770472DE9F04106463C
:100D400015460C460846FFF715FA014600231846DB
:100D500012E0325CE75CBA4201D15B1C05E023B1D2
:100D600027780023BA4200D101238B4203D1C01A55
:100D7000401CBDE8F081401CA842EAD34FF0FF3090
:100D8000F7E700000148408B70470000200A002070
:100D90000148B0F918007047200A002010B590F8FB
:100DA00021100022022905D00421816380F820202F
:100DB000012010BD01680B6823F00E030B60016871
:100DC0000B6823F001030B6090F84010C46B01F036
:100DD0001C03012101FA03F3636080F8211080F8FD
:100DE0002020104610BD10B590F8211000240229D3
:100DF00003D00421816301241AE001680A6822F00B
:100E00000E020A6001680A6822F001020A6090F886
:100E10004010C36B01F01C02012101FA02F25A607A
:100E200080F82110002180F82010416B01B1884723
:100E3000204610BDF0B4C16B0C6801680D6890F8D5
:100E4000402002F01C06042202FA06F3234211D0CD
:100E50006B070FD50B689B0603D40B6823F00403C4
:100E60000B6090F8401001F01C018A40C16B4A6091
:100E7000C16A1DE0022303FA06F727424FF0000C77
:100E80004FF0010218D0AF0716D50C68A40605D4A0
:100E90000C6824F00A040C6080F8212090F84010BF
:100EA00001F01C018B40C16B4B6080F820C0816A4F
:100EB00000291AD0F0BC08470823B340234214D0BD
:100EC0002B0712D50B6823F00E030B6090F840102F
:100ED000C36B01F01C0102FA01F15960826380F8D2
:100EE000212080F820C0016BE2E7F0BC70470000D1
:100EF00030B528B308C8134914221944B1FBF2F1E4
:100F00008900C16310498163022141771A6847F65D
:100F1000F0718A43D0E900142143D0E902452C4303
:100F200021430469214344692143846921431143D6
:100F3000196000214163012242770177084630BDE4
:100F4000012030BDF89FFDBF0060024070B504462F
:100F500090F82000002501280CD0012084F8200002
:100F600094F821600020012E06D084F8200002258C
:100F7000284670BD022070BD022684F82160A0635F
:100F80002068066826F0010606602046FFF7BCFED2
:100F9000E06A00282068016802D041F00E0106E0F6
:100FA00021F0040101602068016841F00A0101603C
:100FB0002068016841F001010160D9E770B504467D
:100FC00000F0E4F80546601C02D004484068044480
:100FD00000F0DCF8401BA042FAD370BD10000020E6
:100FE0002DE9F84FDFF864B100234FF0010C4FF00A
:100FF000030A4FF00F090BF1040EA0E00CFA03F600
:10100000324072D04C68022C01D0122C0ED1DC0878
:1010100000EB8408D8F820405D07EF0E09FA07F5C9
:10102000AC430D69BD402543C8F8205007685D00FA
:1010300091F804800AFA05F408F00308A74308FAB7
:1010400005F848EA0708C0F800804F68012F05D06E
:10105000022F03D0112F01D0122F11D18768D1F8A0
:101060000C80A74308FA05F848EA0708C0F808808A
:101070004768B7430E79C6F300169E403E4346606C
:10108000C668A6438C68AC403443C4604C68E40036
:1010900054D52F4C256845F001052560246823F0C0
:1010A000030504F0010400942A4C2544AF689C0712
:1010B000240F09FA04F6B743274EB04201D10026A7
:1010C00015E0264EB04201D1012610E0244EB04278
:1010D00001D102260BE0234EB04201D1032606E0E7
:1010E000214EB04202D1042601E027E00526A640A9
:1010F0003E43AE60DBF800405D464E689443F60325
:1011000000D514432C60DEF8004075464E689443C9
:10111000B60300D514432C600C4D08352C684E687E
:101120009443F60200D514432C60084D0C352C680E
:101130004E689443B60200D514432C605B1C0A68C9
:1011400032FA03F47FF45AAFBDE8F88F000401408F
:10115000203802400000014000000240000402402C
:1011600000080240000C02400010024000690840E4
:1011700000D00120704742690A4200D00904816111
:1011800070470AB1816170470904FBE70148806834
:10119000704700001000002070B504001BD094F8C8
:1011A0003D00002520B984F83C50204600F0AEF800
:1011B000242084F83D002068016821F001010160CD
:1011C00000F0D4FA4D4A6168914201D84C4900E0E0
:1011D0004C49884201D2012070BD4B492368B0FBC5
:1011E000F1F15E6826F03F060E435E60636893424D
:1011F00006D94FF4967359434FF47A73B1FBF3F168
:101200002368491C1E6A26F03F0631431962616853
:10121000914210D84900401EB0FBF1F2521CC2F3BB
:101220000B02042A01D2042022E0B0FBF1F0401CA2
:10123000C0F30B001CE0A368F3B301EBC10202EBA7
:101240000116421EB2FBF6F2521C42F48042120515
:1012500049D093B301EBC10202EB0111401EB0FB78
:10126000F1F0401CC0F30B0040F4804040F400401B
:101270002168CA694CF6FF739A431043C861D4E9E8
:101280000701084321680A6822F0C0021043086081
:10129000D4E9030101432068826848F2FF339A438E
:1012A00011438160D4E9050108432168CA6822F02E
:1012B000FF021043C86001E00EE016E020680168FC
:1012C00041F0010101602564202084F83D00256380
:1012D00084F83E50002070BD01EB4106421EB2FB77
:1012E000F6F2521CB3E70120C2E701EB4101401EB8
:1012F000B0FBF1F0401CC0F30B00B7E7A086010083
:1013000080841E0000093D0040420F0010B586B0E9
:10131000044614216846FEF722FF144920688842DB
:1013200021D11348016841F002010160006869465B
:1013300000F0020005904FF44060009012200190F0
:101340000120029003200390042004900948FFF735
:1013500047FE07480830016841F4800101600068D9
:1013600000F48000059006B010BD00000058004059
:101370001C3802400004024002488168426811445F
:10138000816070471000002010B50024032000F099
:1013900079F8002000F008F808B1012401E000F01D
:1013A00025F8204610BD000070B50E4E05460024FD
:1013B000706898B14FF47A71B1FBF0F00A4909688E
:1013C000B1FBF0F000F0C4FC40B9102D06D20022B1
:1013D0002946501E00F036F8356000E00124204612
:1013E00070BD0000100000201C0000200D4808B552
:1013F000016841F000410160016801F00041009185
:10140000011F0A6842F001020A60096801F0010147
:101410000091016841F080510160006800F0805047
:10142000009008BD24380240002809DB00F01F02AC
:10143000012191404009800000F1E020C0F8001136
:1014400070470000F0B40E4B1B680C46C3F3022338
:10145000C3F10705042D00D90425191D072901D260
:10146000002300E0DB1E012606FA05F1491E21409B
:1014700099409E40761E16403143F0BC02F091BB6D
:101480000CED00E0064900F0070208684FF6FF0384
:10149000184040EA0220034A1043086070470000E9
:1014A0000CED00E00000FA052DE9F84F0646007843
:1014B000C0077DD0414D00272868C00008D42868A7
:1014C00040F0805028602868012700F0805000908C
:1014D0003B480168C90512D40168804641F4807117
:1014E0000160FFF753FE044605E000BFFFF74EFE24
:1014F000001B642840D8D8F80000C005F6D5DFF8F6
:10150000BC80A8F12408D8F8000000F0C041706841
:1015100000F0C0428A420AD0C0F30141032906D13B
:10152000D8F80010890302D50120BDE8F88F234CBC
:101530001034216811F4403123D000F44030884247
:101540001FD03078C0071CD020681E49012220F42B
:1015500040300A6000220A602060C00511D5FFF704
:1015600015FE814641F2883A08E000BFFFF70EFE03
:10157000A0EB0901514501D90320D6E72068800579
:10158000F4D57168C1F30140032808D1D8F80020D0
:1015900001F0C04122F0C0420A43C8F80020206890
:1015A000716801F44031084320600FB1286800E001
:1015B00002E020F0805028600020B6E72438024086
:1015C00000700040DC0647422DE9F0470E4605005A
:1015D00079D0DFF88481D8F8000000F00100B04233
:1015E00014D2012E05D1D8F8001041F00401C8F83A
:1015F0000010D8F8001021F001013143C8F80010A4
:10160000D8F8000000F00100B0425CD12878534CBB
:10161000800705D52068A96820F0F0000843206005
:101620002878C0075CD04D496868083902281AD06C
:1016300003281BD0096801281BD08905002966DA18
:10164000216821F0030101432160FFF79FFD6968D4
:10165000074641F28830022914D0032920D00129FD
:1016600081462AD038E009688903E7E709688901DB
:10167000E4E78907E2E700BFFFF788FDC11B4945A2
:1016800001D926E081462068C0F381000228F3D109
:1016900026E000BFFFF77AFDC11B494501D918E0DC
:1016A00081462068C0F381000328F3D118E000BF11
:1016B000FFF76CFDC11B49450BD82068C0F38100C2
:1016C0000128F5D10CE022E0FFF760FDC11B494580
:1016D00002D90320BDE8F087206810F00C0FF3D189
:1016E000D8F80010404601F00101B14211D9012E95
:1016F00003D1016841F004010160016821F001019A
:1017000031430160006800F00100B04201D00120C7
:10171000E0E72878400705D52068E96820F4E06014
:10172000084320602878000706D52068296920F43E
:10173000605040EAC100206000F038F82168084A93
:10174000C1F30311515CC8400649086006480068AF
:10175000BDE8F047FFF728BE003C024008380240D1
:10176000715800081C0000201000002004480549A2
:1017700000680968044AC1F30221515CC8407047FF
:101780001C00002008380240815800080448054920
:1017900000680968044AC1F3C221515CC84070471F
:1017A0001C0000200838024081580008134A1168C4
:1017B00001F00C0004280CD008280CD00C280CD008
:1017C000101F0068C0F342314FF40040491C8840AC
:1017D00070470B4870470B4870470B48C1F3834371
:1017E0001268C05CC1F38151491CD20301D5054A7E
:1017F00000E0034A5043B0FBF1F070470838024064
:101800000024F40000127A00685800082DE9F84F0F
:1018100004007DD0FC480168006801F00C0700F46A
:1018200080362078F94DC00741D0082F12D00C2FF8
:1018300002D1B6F5803F0DD06068012811D008B103
:10184000052818D0286820F480302860286820F403
:10185000802009E02868800329D560680028D8D056
:1018600025E0286840F480302860606890B1FFF778
:101870008DFC80460AE0286840F480202860F0E76C
:10188000FFF784FCA0EB080064287BD8286880035D
:10189000F6D50CE0FFF77AFC804605E0FFF776FC12
:1018A000A0EB08006428F0D828688003F6D42078DC
:1018B000DFF85CB3DFF85C8380074FF001094FF07D
:1018C000000A35D5042F0AD00C2F00D13EB1E068B4
:1018D000F8B1C8F80090FFF759FC06460BE02868FD
:1018E00080070BD5E068012812D107E0FFF74EFC16
:1018F000801B0228C9D828688007F7D5DBF80010BC
:10190000226921F4F85141EA0221CBF800100FE0DE
:1019100077E1C8F800A0FFF739FC064605E000BFF4
:10192000FFF734FC801B0228AFD828688007F7D463
:101930002078C00674D53FB1A069E0B3C8F8209004
:10194000FFF724FC06464AE02868800502D5A06916
:10195000002884D0206ADBF800105E4601F4604164
:10196000884210D901F038FA0028BDD13068216AC8
:1019700020F4604008433060217F306861F31F60CD
:1019800030600FE096E0316821F46041014331603E
:10199000217F306861F31F603060206A01F01CFA1B
:1019A0000028A1D1216A4FF4004009EB5131884051
:1019B0009549096800E025E0974AC1F30311515C9D
:1019C000C8409649086096480068FFF7EDFC00287B
:1019D0006FD125E0FFF7DAFB801B02286AD8286860
:1019E0008005F7D5DBF80010226A21F4604111432D
:1019F000CBF80010227FDBF8001062F31F61CBF8F8
:101A000000100DE0C8F820A0FFF7C0FB064604E078
:101A1000FFF7BCFB801B02284CD828688005F7D450
:101A20002078804E000722D57F48616981B1C0F8D7
:101A30000090FFF7ABFB834606E000BFFFF7A6FB75
:101A4000A0EB0B00022835D830688007F6D50EE0F1
:101A5000C0F800A0FFF79AFB834605E0FFF796FB6E
:101A6000A0EB0B00022825D830688007F6D4207838
:101A700040076DD56B484FF0000B10380068C00070
:101A80000BD468481038016841F08051016000684B
:101A90004FF0010B00F08050009064480168C905C8
:101AA00014D4016841F480710160FFF76FFB00906E
:101AB00008E08DE079E000BFFFF768FB0099401A6D
:101AC000642872D859480068C005F5D5A068012877
:101AD0000AD008B1052811D0306820F48070306039
:101AE000306820F4806002E0306840F4807030603C
:101AF000A068A8B1FFF74AFB00900DE0306840F401
:101B000080603060F0E700BFFFF740FB0099411AAA
:101B100041F2883081425AD830688005F4D50EE011
:101B2000FFF734FB009007E0FFF730FB0099411A04
:101B300041F2883081424AD830688005F4D4BBF144
:101B4000000F05D037481038016821F0805101603E
:101B5000606A58B30C2F41D00228504605D0C8F80F
:101B60006000FFF713FB044634E04746C8F8600006
:101B7000FFF70CFB064604E0FFF708FB801B02287A
:101B800025D828688001F7D4D4E90A1001431E48FB
:101B9000226B036823F47D031A4311430160C7F8E5
:101BA0006090FFF7F3FA044607E010E040E000BF62
:101BB000FFF7ECFA001B022809D828688001F7D546
:101BC00036E000BFFFF7E2FA001B022802D903202B
:101BD000BDE8F88F28688001F4D429E00128F7D007
:101BE00009480068A26A00F48031914209D1E26A92
:101BF00000F47011914204D1216B00F4400088423E
:101C000016D00120E4E70000083802400038024006
:101C10000438024000004742715800081C000020B0
:101C20001000002034380240800647420070004017
:101C30000020CDE770B5040005D00025A56294F81A
:101C4000510010B106E0012070BD84F850502046CC
:101C500000F02AF8022084F851002068016821F081
:101C600040010160D4E901010843D4E903121143A2
:101C7000084361690843218B01F400710843E1695D
:101C80000843216A0843A16A084321680860A069E3
:101C9000042101EA1040216848606565012084F84C
:101CA0005100002070BD000070B586B004461421BC
:101CB0006846FEF754FA214E21680022204802238C
:101CC00003240525B14216D1011D0E6846F4805645
:101CD0000E60096801F480510591016841F001012D
:101CE00001600068694600F001000590F020CDE930
:101CF000000314481AE0144EB1421CD110490831B7
:101D00000E6846F480460E60096801F48041059132
:101D1000016841F0020101600068694600F00200BC
:101D200005904FF46040CDE90003084802AE86E814
:101D30003400FFF755F906B070BD000000300140D7
:101D40001C380240000002400038004000040240FD
:101D500010B5401EB0F1807F01D3012010BD4FF0BF
:101D6000E02460610F21601701F01BFF0020A061DB
:101D700007202061002010BD10B5044600684169AD
:101D800094F83920C1F3C011212A0BD151B1416916
:101D900021F080014161206B08B1FEF7FFFF204672
:101DA00001F0D8FB2068416994F83A20C1F3801112
:101DB000222A0BD151B1416921F040014161606B90
:101DC00008B1FEF7EBFF204601F0B6FB002010BD86
:101DD0007047000070B5026804461068D168536906
:101DE00010F00F0F51D003F0010501F49076354348
:101DF0005DD0C20705D0CA0503D5E26B42F00102EF
:101E0000E263420705D5DA0703D0E26B42F0020233
:101E1000E263820705D5DA0703D0E26B42F00402E1
:101E2000E263020705D5DA0703D0E26B42F008024D
:101E3000E263E26B002A34D0800604D5880602D51E
:101E4000204601F090FB20684069E16BC0F38010F0
:101E500001F008010143204624D001F06DFB206809
:101E6000416949061AD5416921F040014161606B21
:101E7000A0B11B494163606BFEF7B5FF002810D08D
:101E8000606B416BBDE87040084783060FD58B0639
:101E90000DD52046BDE8704001F065BB2046FFF738
:101EA00097FF70BDFFF794FF0020E06370BD03064D
:101EB00006D50B0604D52046BDE8704001F036BCBF
:101EC0004006F3D54806F1D5D168204621F04001FF
:101ED000D160202184F8391000F082F970BD000033
:101EE0006134000870B5040004D094F8390000256E
:101EF00010B106E0012070BD84F83850204600F093
:101F000023F8242084F839002068C16821F40051A6
:101F1000C160204601F072FB2068016921F4904104
:101F200001612068416921F02A0141612068C1688E
:101F300041F40051C160E563202084F8390084F841
:101F40003A00002070BD00002DE9F04786B004463D
:101F500014216846FEF703F9DFF8508121685448E0
:101F6000022201230326DFF84CA1002580274FF031
:101F7000070C4FF01009414546D1011DD1F80080F2
:101F800048F48048C1F80080096801F48041059157
:101F9000016841F0010101600068694600F001003C
:101FA000059070028DE84D105046FFF719F8434E2A
:101FB0004148C6E90005C6E9025735617561B5615A
:101FC0003046F561FEF794FF08B1FEF7B5FE666393
:101FD00074623A4E384844361438C6E902573561BF
:101FE0007561B561F561C6E900093046FEF780FF0D
:101FF00008B1FEF7A1FE26630022012125207462AC
:10200000FFF720FA25204CE0DFF8B48041454AD1A3
:1020100027490831D1F8008048F40038C1F8008021
:10202000096801F400310591016841F00101016086
:102030000068694600F0010005900C208DE84D1005
:102040005046FEF7CDFF1D4E1B4888361430C6E9BA
:102050000005C6E9025735617561B5613046F56125
:10206000FEF746FF08B1FEF767FE66637462134E23
:102070001148CC362830C6E9025735617561B56123
:10208000F561C6E900093046FEF732FF08B1FEF7F8
:1020900053FE26630022012126207462FFF7D2F945
:1020A0002620FFF7C1F906B0BDE8F08700380140EF
:1020B0001C38024000000240586002400803002023
:1020C00000440040F8B5044690F83A0020283CD17E
:1020D000C1B3BAB394F83800012836D0012084F88F
:1020E0003800A162A2850025E563222084F83A0029
:1020F000636B17489862636B1648D862636B164827
:102100001863606B134645630846666B2168024698
:102110003046091DFEF71AFF2068016841680091EA
:1021200084F83850C16841F48071C1602068416909
:1021300041F0010141612068416941F04001416184
:102140000020F8BDFFE70120FBE70220F9E70000CF
:10215000BB340008F734000871340008704770473A
:1021600070B5044690F83900202830D169B362B3C5
:1021700094F8380001282AD0012084F83800216220
:10218000A284E2840025E563212084F83900236BD2
:1021900010489862236B1048D862236B0F4818636D
:1021A000206B134645632668206B321DFEF7CEFE7A
:1021B00021686FF04000086084F838502068416959
:1021C00041F080014161002070BD012070BD0220FE
:1021D00070BD0000013500082F350008713400087B
:1021E000016B09680A6822F001020A600A4A016864
:1021F0001268914204D109490A7822F002020A7059
:102200000549006840310968884204D104480178D2
:1022100021F002010170704788020020180400209C
:102220009C0600207047FEE770B5104D4FF48064A7
:10223000002221462846FEF7A4FF00F0FFFE002200
:1022400061002846FEF79DFF022002F0EEFD01220C
:1022500021462846FEF795FF022002F0E6FD2146C2
:102260002846BDE870400022FEF78BBF0004024004
:10227000F0B585B04FF400600124002503268DE8F9
:102280007100084F69463846FEF7AAFEA0028DE8A5
:10229000710069463846FEF7A3FE012002F0C5FD35
:1022A00005B0F0BD0004024070B5104D4FF48064DD
:1022B000002221462846FEF764FF00F0BFFE0122FF
:1022C000D1022846FEF75DFF022002F0AEFD01229A
:1022D00021462846FEF755FF022002F0A6FD2146C2
:1022E0002846BDE870400022FEF74BBF00040240C4
:1022F0002DE9F0478046002400F08EFE022002F017
:1023000094FD174F00254FF480664FF400690022BA
:1023100031463846FEF735FF022002F086FD0122E5
:1023200031463846FEF72DFF6006040E4946384612
:10233000FEF71CFF08B1641CE4B2022002F075FD38
:102340006D1CEDB2082DE2D3B8F1000F04D0FFF7F9
:102350006BFF2046BDE8F087FFF7A6FFF9E7000016
:10236000000402402DE9F041054600F067FE194FD8
:102370004FF48066002231463846FEF702FF022005
:1023800002F053FD00244FF40068280601D5012215
:1023900000E0002241463846FEF7F3FE6806050ECF
:1023A000012002F042FD012231463846FEF7E9FEE7
:1023B000022002F03AFD002231463846FEF7E1FEE7
:1023C000012002F032FD641CE4B2082CDDD3BDE82C
:1023D000F08100000004024070B500F02FFE0122E1
:1023E0000E4DD40221462846FEF7CBFE012296026E
:1023F00031462846FEF7C5FE022002F016FD0022F7
:1024000021462846FEF7BDFE022002F00EFD002206
:1024100031462846FEF7B5FE012070BD000402409B
:1024200070B500F00BFE104D4FF480640022214681
:102430002846FEF7A6FE6600002231462846FEF733
:10244000A0FE022002F0F1FC012221462846FEF700
:1024500098FE012231462846FEF793FEBDE8704003
:10246000022002F0E2BC0000000402402DE9F0412D
:10247000002400F0D1FD0122154DD6023146284638
:10248000FEF77FFE012002F0D0FC012297023946C0
:102490002846FEF776FE022002F0C7FC08E0641C26
:1024A000E4B2FA2C04D9FFF7BBFF0120BDE8F081AC
:1024B00031462846FEF75AFE0028F0D10022394660
:1024C0002846FEF75EFE022002F0AFFC0020EDE79A
:1024D0000004024010B504461E23094A0D210220C3
:1024E00000F01AFC0021032808D1054AC43A531809
:1024F0005B7E6354491CC9B20829F8D310BD0000A3
:102500001416002010B504461E23094A112102208A
:1025100000F002FC0021032808D1054AA43A531810
:102520005B7B6354491CC9B20429F8D310BD000079
:10253000F415002010B504461E23094A0C21022080
:1025400000F0EAFB0021032808D1054AC43A5318D9
:102550005B7C6354491CC9B20829F8D310BD000044
:102560001416002030B50C4601468FB01E23164AC3
:10257000022000F0D1FB050024D104F10F035A1E04
:10258000511E0DF1280C481E8CE80F00431E821EC0
:10259000C11E0DF1180C001F8CE80F000DF1080C86
:1025A000E31DA21D611D201D8CE80F00E11CA01C75
:1025B000CDE900010448631C22460449801C02F056
:1025C0009CFF28460FB030BD24160020EC610008A7
:1025D0000A461E230146012000F09EBB0A48012145
:1025E00000224171C1700271427281700C238372AA
:1025F000C172817142F210710180C27107210172B2
:102600000248027070470000A415002068010020F5
:10261000002210B51E231146104600F07DFB012854
:1026200001D0012010BD002010BD01004FF00000BE
:1026300008D0012907D1002241F2707314211046FD
:1026400000F06ABB0820704710B502461E2319210E
:10265000012000F061FB002010BD01B51E236A4679
:102660000B21012000F058FB08BD01B51E236A466E
:102670002021012000F050FB08BD01B51E236A4651
:102680001321012000F048FB08BD01B51E236A4656
:102690002221012000F040FB08BD01B51E236A463F
:1026A0001221012000F038FB08BD01B51E236A4647
:1026B0001D21012000F030FB08BD00002DE9F84F7E
:1026C000994C9A4E00252078F7144FF0050A4FF0E8
:1026D00003084FF001094FF4805B06287ED2DFE843
:1026E00000F0038EC4D6FBC9FFF792FF08B190A19A
:1026F000B1E00020FFF7B1FF93A1002000F0FAFC49
:1027000096480546FFF716FF95A1002000F0F2FC61
:102710000821284602F0BEFC904808300546FFF725
:10272000D9FE94A1002000F0E5FC0821284602F023
:10273000B1FC8A4D103D2879FFF79FFF2A7992A1BD
:10274000002000F0D7FC687AFFF7AFFF6A7A92A109
:10275000002000F0CFFC687930B1FFF786FF93A12D
:10276000002000F0C7FC07E0A879FFF78EFFAA79E8
:1027700092A1002000F0BEFCA87858B193A10020DF
:1027800000F0B8FC75490E2010310E46FFF7EAFE46
:1027900094A125E098A1002000F0ACFC6846FFF76A
:1027A000B1FE99A1002000F0A5FC0421684602F0CA
:1027B00071FC6A49102030310E46FFF709FF99A1DC
:1027C000002000F097FC1021304602F063FC6349C2
:1027D0000F2020310E46FFF7FBFE00E0A1E096A19E
:1027E000002000F087FC1021304602F053FCA8784E
:1027F000FFF753FF95A1002000F07CFC44E097A177
:10280000002000F077FC0120FFF70FFF8146012236
:10281000D84659463046FEF7B4FC002239463046C9
:10282000FEF7AFFCC82002F0FEFA00224146304617
:10283000FEF7A7FC012239463046FEF7A2FC5FEA0C
:1028400009000DD0B9F1080F01D08BA103E00220DF
:10285000207065708CA1002000F04CFCBDE8F88F62
:1028600084F800A006206070F8E78AA1002000F03C
:1028700041FC41E040F24C4002F0D5FA04202070C7
:10288000A57060780628E9D184F80090E6E700F0AA
:1028900065FBFEF77DFA244D0C352880FEF772FAB1
:1028A000688039463046FEF766FC642002F0BBFAC9
:1028B00039463046FEF75FFCA5F108000722827119
:1028C00000682946FDF732FCA5F10800FFF7BCFEC1
:1028D00084F800A0C2E7FFE7FFF79AFEA178491C41
:1028E000A17001280BD0E5704FF4FA7002F09BFA4A
:1028F000A0780628B2D1A57084F80080AEE7E07811
:10290000022802D0401CE070A8E7E570A570012203
:1029100059463046FEF735FC002239463046FEF770
:1029200030FC25709AE7000068010020000002409A
:102930004C6F7261206D6F64756C65206E6F7420D2
:1029400072656164790A00004C6F72615F5365744F
:10295000415445204F4646200A000000B41500208F
:102960004C6F52615F476574646576457569203ABE
:10297000000000004C6F52615F47657461707045E4
:102980007569203A0000000053657420436C617340
:10299000733A2564200D0A0053657420436F6E66F8
:1029A00069726D3A2564200D0A0000005365742099
:1029B000414452204F4E200D0A0000005365742000
:1029C0004452202564200D0A000000004465766909
:1029D0006365204F544141204A4F494E494E472E8E
:1029E0002E2E00004C6F52615F476574204150509D
:1029F0004B6579203A200000446576696365204183
:102A000042502E2E2E0000004C6F52615F476574BD
:102A100044657669636541646472657373203A2026
:102A2000000000004C6F52615F5365744170705339
:102A30004B6579203A2000004C6F52615F536574FA
:102A40004E776B534B6579203A2000004F5441413B
:102A50005F4A4F494E5F4D4F444500004C6F7261D5
:102A6000206D6F64756C65204445564943455F523F
:102A7000454144590A0000004E776B204E6F742088
:102A80004A6F696E65640A004E776B204A6F696E03
:102A900065640A004E776B204A6F696E6564202D6D
:102AA0002077616974696E670A000000154808B5EF
:102AB000016841F0807101600068002200F08070C0
:102AC000009011460E20FEF7BDFC0E20FEF7ACFC78
:102AD000002211460F20FEF7B5FC0F20FEF7A4FCE4
:102AE000002211461020FEF7ADFC1020FEF79CFCE2
:102AF000002211461120FEF7A5FCBDE80840112078
:102B0000FEF792BC1C38024070B586B014216846AE
:102B1000FDF725FB2348016841F0040101600168CD
:102B200001F004010591016841F020010160016894
:102B300001F020010591016841F001010160016887
:102B400001F001010591016841F002010160006896
:102B5000012400F0020005904FF4C05000258DE8DC
:102B60003100114E694630460395FEF739FAE0030D
:102B7000CDE90005694602943046FEF731FACDE909
:102B80000045694630460294FEF72AFA01221103F5
:102B90003046FEF7F6FA0022E1023046FEF7F1FA7F
:102BA00006B070BD1C380240000002400D4810B550
:102BB0000B4901600C49416000214FF48042816063
:102BC000C0E9031241618161C1610162FEF7E4FA6B
:102BD000002803D0BDE81040FEF7AEB810BD0000DD
:102BE0000058004084010020A08601000F4810B565
:102BF0000D4901604FF48271416000218160C16024
:102C00004FF480220161C0E90512C1610162416295
:102C100081620A21C162FFF70DF8002803D0BDE8E8
:102C20001040FEF789B810BD00300140D8010020E7
:102C30000F4810B50D4901604FF4827141600021C9
:102C40008160C1604FF400720161C0E90512C16189
:102C50000162416281620A21C162FEF7EBFF002836
:102C600003D0BDE81040FEF767B810BD0038004043
:102C70003002002010B5114C0F480C2120604FF499
:102C8000165060600020A060E060C4E90401A0610B
:102C9000E0612046FFF726F908B1FEF74DF82068FD
:102CA000C16841F01001C160BDE810404FF42072CE
:102CB00003490248FFF706BA0038014088020020A5
:102CC0001C04002010B5114C0F480C2120604FF45B
:102CD000165060600020A060E060C4E90401A061BB
:102CE000E0612046FFF7FEF808B1FEF725F82068FE
:102CF000C16841F01001C160BDE810404FF420727E
:102D000003490248FFF7DEB900440040C802002032
:102D1000A0060020FEE700002DE9F04188460546A8
:102D20001E4617466FF001044FF496711C48FDF7DC
:102D300016FA01F0C3FD45B1012D18D0022D18D0AF
:102D400018A1002000F0D6F90AE00022114612E096
:102D500032461849404601F0E9F90446401C16D0B5
:102D60004FF4FA7002F05FF82046BDE8F0810122CE
:102D700000E002223946404600F032FF01F066FAD8
:102D80000546C82002F04FF8002DEDD1E0E741F6EE
:102D900064152A4608A1002000F0ACF92846E1E7B6
:102DA000F80E0020756E6B6E6F772067726F75700E
:102DB0000A0D0000501500202D2D2D2D2D2D3E74B7
:102DC000696D656F75742025642E2E2E2E2E2E0DA6
:102DD0000A0000007047704738B51C490023096895
:102DE0001B4A11F0F00F23D118491C310C68E50083
:102DF000184C03D5216801F4C0540EE00D6845F06D
:102E000080550D600D6805F08055009524680D68AB
:102E100004F4C05425F080550D60B4F5C05F07D1AF
:102E2000B0F5404F04D11068012340F00400106059
:102E3000106820F0010018431060106800F00100D5
:102E4000984201D0012038BD002038BD083802402A
:102E5000003C02400070004038B52022302188201C
:102E600002F032FB93223021882002F02DFB322227
:102E70002B21882002F028FB32222021882002F01A
:102E800023FB24222021882002F01EFB3F22202148
:102E9000882002F019FB36222221882002F014FB40
:102EA00020222221882002F00FFB2B2222218820C1
:102EB00002F00AFB34222321882002F005FB2222A3
:102EC0002321882002F000FB29222321882002F000
:102ED000FBFA37222721882002F0F6FA2122272147
:102EE000882002F0F1FA2A222721882002F0ECFA49
:102EF000002402232D22F3218820009402F09EFA60
:102F000002231F22E1218820009402F097FA022375
:102F10001422E1218820009402F090FA0223092271
:102F2000E1218820009402F089FA02231A46E12167
:102F30008820009402F082FA0120009006230022EB
:102F4000E021882002F07AFA034D1421681CFDF775
:102F500006F9A5F8154038BD200A002038B501252E
:102F600006230022E0218820009502F067FA194C20
:102F70000221601C01F03EFFE17888421FD102214E
:102F8000201D01F037FFA179884218D1B4F8010063
:102F900044F25C4140BA00B248434FF6FF7190FBE7
:102FA000F1F0A0F5885094382083A08842F2107286
:102FB00040BA5043B0FBF1F0608307480570638B63
:102FC000B4F9182001B005A1BDE83040002000F0A0
:102FD00091B80000200A0020200000202D2D2D2D6A
:102FE0002D2D3E526561645F74656D7048756D5F2F
:102FF00076616C752E2E2E54656D70203D205B25FC
:1030000032645D2048756D203D205B2532645D2E65
:103010002E2E0D0A0000000000B585B04FF40060B0
:103020000090002001900120029069460248FDF7BF
:10303000D7FF05B000BD00000004024000B585B018
:103040004FF4006000900120019000200390694639
:103050000248FDF7C5FF05B000BD000000040240B6
:103060002DE9F04107460B4815460E46007808B991
:1030700000F01CFCEFF31184202080F311882A4615
:103080003146384600F008F8E1B281F31188BDE816
:10309000F0810000400A002070B50E46144900EB94
:1030A000400001EBC0051446E86A183520B101283C
:1030B0000FD0022805D113E0284600F02BFCA042D7
:1030C00001D2002411E022463146284600F048FD96
:1030D0000BE0284600F01EFCA042F4D20446F2E7C2
:1030E0003146284600F00FFD0446204670BD000022
:1030F000400A00200FB408B504A900916A4603995C
:1031000000F003F801B05DF814FB2DE9F04198B030
:10311000064607A8029040200025CDE90305CDE929
:10312000055690460C4614F8011B002973D025293A
:1031300008D002A800F0C8FC05980028F3DA18B0FF
:10314000BDE8F081002001212278232A1ED02B2AFD
:1031500019D02D2A02D0302A08D102E040F0010017
:1031600001E040F00200641C0029EDD1002221782A
:10317000A1F130030A2B0CD202EB820201EB4202D6
:10318000303A641CF3E740F00400ECE740F008003C
:10319000E9E70023CFB22E2F0BD114F8011FA1F1C4
:1031A00030070A2F05D203EB830301EB4303303BC7
:1031B000F3E76C290DD068290BD0702954D00BDCB3
:1031C000252916D0582931D063290CD0642913D170
:1031D00014E014F8011FECE7732934D075291BD0D3
:1031E000782909D122E0D8F80000011DC8F80010A4
:1031F000017802A800F068FC641C9DE7D8F8001074
:103200000F1DC8F800700968CDE900200A2202A845
:1032100000F08CFBF0E733E0D8F800100F1DC8F881
:1032200000700968CDE900200A2208E0D8F80010F3
:103230000F1DC8F800700968CDE90020102202A80F
:1032400000F0D8FBD8E7D8F80000011DC8F800103E
:10325000076817F8011B0029CED002A800F034FC43
:1032600005980028F5DAC7E7D8F80000011DC8F86E
:10327000001001680820CDE9000503461022DEE7B2
:10328000059800287FF75BAF049820B1024607A994
:103290003046FFF7E5FEDDE90410084405904EE7EF
:1032A0007047FEF769B8000030B595B03421684624
:1032B000FCF755FF14210DA8FCF751FF0024164818
:1032C00012941394016821F4C05141F4006101602B
:1032D00009200125CDE90005022009900595C003CC
:1032E0000A904FF440200B90A8050C906846FEF71A
:1032F0008DFA0F200D900320CDE90E0410940121CA
:103300000DA81194FEF760F96804CDE9125012A8D7
:10331000FEF7CAF815B030BD007000400F480168D4
:1033200041F4807101600D4908310A680C4B1A4064
:103330000A6002680B4B1A400260026822F4802285
:103340000260086820F47D0008600020091D086004
:1033500005494FF0006008607047000000380240E7
:103360000CC0FF88FEFFFEEE08ED00E0F0B585B072
:1033700014216846FCF7F3FE0024F020CDE9000498
:10338000174E694630460294FDF72AFEC020009091
:103390000125CDE90154134F694638460394FDF7E2
:1033A0001FFE0C200090CDE901546946304603947D
:1033B000FDF716FE012204213046FDF7E2FE002251
:1033C00008213046FDF7DDFE012240213846FDF799
:1033D000D8FE002280213846FDF7D3FE05B0F0BDAF
:1033E000000002400004024030B585B01421684658
:1033F000FCF7B5FEF020009001200024CDE9010487
:10340000154D694628460394FDF7EAFDC020CDE935
:103410000004694611480294FDF7E2FD0C20CDE955
:103420000004694628460294FDF7DAFD01221021C6
:103430002846FDF7A6FE002220212846FDF7A1FE22
:10344000012240212846FDF79CFE002280212846CB
:10345000FDF797FE05B030BD0000024000040240B9
:1034600010B5406A0021C185C184FEF7B1FC10BDD2
:1034700070B5446A2068406994F83910C0F3C010F0
:103480000025212904D118B1E584204600F062F816
:103490002068406994F83A10C0F38010222904D1C2
:1034A00018B1E585204600F047F8E06B40F01000C9
:1034B000E0632046FEF78CFC70BD10B50146406A03
:1034C00009680968890613D40021C1850168CA68A2
:1034D00022F48072CA6001684A6922F001024A61DE
:1034E00001684A6922F040024A61202180F83A10BE
:1034F000FEF734FE10BD10B5406AFEF730FE10BD79
:1035000010B50146406A0968096889060CD4002193
:10351000C18401684A6922F080024A610068C1687A
:1035200041F04001C16010BDFEF75AFE10BD10B55C
:10353000406AFEF777FE10BD0168CA6822F49072F7
:10354000CA6001684A6922F001024A61202180F8BC
:103550003A1070470168CA6822F0C002CA60202190
:1035600080F83910704710B590F83A10222901D030
:10357000022010BD8168B1F5805F11D0016900297A
:1035800001681FD0496801F07F03816A4A1C82628A
:103590000B70C18D491E0904090CC18518D02BE0A0
:1035A0000269816A002A0268526805D0D2B20A8094
:1035B000816A491C8162ECE7C2F308020A80816AD1
:1035C000891CF7E74A68816A4B1C83620A70E0E74E
:1035D0000168CA6822F02002CA600168CA6822F441
:1035E0008072CA6001684A6922F001024A612021A2
:1035F00080F83A10FEF7B2FD002010BD2DE9F04131
:10360000044600680169E26821F4405111430161F8
:103610002169A068E269084361691143226808438F
:10362000D16849F20C6399430143D1602068416934
:10363000A26921F4407111434161E1696425322698
:10364000B1F5004F3848216804D081423DD1FEF7E2
:103650009DF83CE0814202D1FEF798F801E0FEF7C8
:1036600085F800EBC00101EB001160686FF0180CE9
:103670004000B1FBF0F3B3FBF5F3B1FBF0F7B1FBA6
:10368000F0F203FB0CF307EB830306EBC303B2FB7F
:10369000F5F2B3FBF5F3120103F0F80302EB43027A
:1036A000B1FBF0F3B1FBF0F0B0FBF5F000FB0CF078
:1036B00003EB800006EBC000B0FBF5F000F0070064
:1036C000216810448860BDE8F081FEF74FF800EBF8
:1036D000C00101EB001160686FF018078000B1FBBA
:1036E000F0F2B2FBF5F2B1FBF0F37A4303EB8202A6
:1036F000B1FBF0F306EB0212B2FBF5F2B3FBF5F30C
:1037000002F0F00202EB0312B1FBF0F3B1FBF0F0B8
:10371000B0FBF5F0784303EB800006EB0010B0FB44
:10372000F5F000F00F00CBE70038014090F83910B9
:10373000212901D0022070478168B1F5805F016ABC
:103740000BD04A1C0262026809785160C18C491E84
:103750000904090CC1840ED017E009880268C1F37E
:103760000801516001690029016A02D0491C016207
:10377000ECE7891CFBE70168CA6822F08002CA6096
:103780000068C16841F04001C1600020704700003E
:1037900010B5044800F03AF8BDE810400148FEF7C3
:1037A00019BB00008802002010B5044800F02EF874
:1037B000BDE810400148FEF70DBB0000C802002024
:1037C000FEE70000064B30B40A4619788C07FDD49A
:1037D00041F002011970014630BC0248FEF7C0BC3E
:1037E0001804002088020020064B30B40A461978DD
:1037F0008C07FDD441F002011970014630BC02482B
:10380000FEF7AEBC9C060020C8020020F8B5016897
:1038100005460868C043C00640D421484FF42076CE
:103820000068814216D11F4C217841F001012170BE
:103830000168406800901A48FEF79EFAA4F5887067
:10384000006840683246C0F520706080211D144831
:10385000FEF738FC124829684030006881421DD1CB
:103860000168406800900E484030FEF785FA0D4828
:103870008838006840680C49C0F5207080B24880E4
:10388000012803D9087840F0010008703246BDE8ED
:10389000F84003484030091DFEF714BCF8BD000095
:1038A00088020020180400209C06002010B5124C4D
:1038B00003202061606111A0A06104F1A800E06113
:1038C0004FF4806020620020A06260620BA121663C
:1038D000E06204F59561616610212067C4E91A1061
:1038E000606709A1E01DFCF759FC08A12046FCF720
:1038F00055FC2020A07110BD400A00205465726D57
:10390000696E616C000000005254540053454747F3
:10391000455200000269C1688A4203D88068401A93
:10392000104400E0501A401E704700002DE9FC5F73
:103930000E008146DDE90C47C6F10000984693462B
:10394000824600D40846012503E000BF90FBFBF04F
:103950006D1C5845FADAA84500D9454624B1002E19
:1039600001DB780700D5641EB80702D5B8F1000F57
:103970000FD0F8070DD164B1A5420AD220214846E4
:10398000641E00F0A1F8D9F80C000028F3DABDE8B5
:10399000FC9FD9F80C000028F9DB002E02DA56460D
:1039A0002D2102E0780707D52B21484600F08CF83E
:1039B000D9F80C000028EADB07F0030002280FD139
:1039C000B8F1000F0CD15CB1A54209D230214846B4
:1039D000641E00F079F8D9F80C000028F3DAD6E775
:1039E000CDE9004743465A463146484600F002F8C2
:1039F000CDE700002DE9F84F8246DDE90A4B0126AC
:103A0000984691460D460846374602E0B0FBF9F06D
:103A10007F1C4845FAD2B84500D947465FEACB70CB
:103A200017D1B4B15FEA8B7002D5B8F1000F02D0A4
:103A3000202000900BE03020FBE75046641E0099E8
:103A400000F042F8DAF80C00002838DB0CB1A7428D
:103A5000F3D3DAF80C00002831DB00BFB8F1010F16
:103A600002D9A8F1010803E0B5FBF6F0484502D3FE
:103A700006FB09F6F2E7DFF84C8000BFB5FBF6F075
:103A800000FB165518F80010504600F01DF8DAF843
:103A90000C00002803DBB6FBF9F6002EEED15FEA3E
:103AA000CB700CD0002C0AD0A74208D2202150465F
:103AB000641E00F009F8DAF80C000028F2DABDE81C
:103AC000F88F00008958000810B50446D4E9013089
:103AD000421C934205D323681954A260E068401C3D
:103AE000E060D4E90102824209D121682069FFF730
:103AF000B7FAA168884203D04FF0FF30E06010BDF4
:103B00000020A06010BD2DE9F047C4681746894623
:103B100006464FF000083069A04201D9051B02E0BB
:103B2000B168201A0D1AB0686D1E001BA84200D89B
:103B30000546BD4200D33D4670682A4620444946AA
:103B4000FCF7F4FAB0687F1B2C44A844A944A042B7
:103B500000D10024F460002FDDD14046BDE8F0879D
:103B60002DE9F04104468846D4E90207C51BE16807
:103B7000606816460844B54206D94146FCF7D6FAB5
:103B8000B819E060BDE8F0812A464146FCF7CEFA5C
:103B9000761B08EB050132466068FCF7C7FAE66061
:103BA000F0E70907090E002804DB00F1E02080F8A7
:103BB0000014704700F00F0000F1E02080F8141DA1
:103BC000704702E008C8121F08C1002AFAD17047E6
:103BD0007047002001E001C1121F002AFBD170478D
:103BE0002DE9F043EF4E8046A1B056F828000C4670
:103BF000022A0ED0012A02461AD0EBA10020FFF7BC
:103C000079FA56F82820F2A3F2A1F3A000F028FBDD
:103C1000ABE10246F2A10020FFF76CFAECA00090A5
:103C200056F82820F8A3EBA1F8A000F019FB9CE1BE
:103C3000F9A10020FFF75EFADA4F4FF00009103FBC
:103C4000B8F13F0F7ED2DFE808F020202020F5F504
:103C5000F520203442486161F4F4F48695A3F5F52B
:103C6000F5B1C5C5E2E2F3F2F1F5F5F0EFF5F520B7
:103C70002020202020EEF5F5F5F5F5EDF4F4ECF537
:103C8000F5F53838383838383800D1A12068CDE912
:103C9000000156F8282070E1CDA1E9A001E0CCA1F7
:103CA000E8A0CDE9000156F828200CE100F0D8FA90
:103CB0005BE1207810B1012803D025E2C4A1E0A087
:103CC00001E0C3A1DFA0CDE90001726AFBE0C0A161
:103CD0002068CDE90001B26A4FE1247814B1012CCB
:103CE00003D00DE0BAA1D6A001E0B9A1D5A0CDE9DD
:103CF0000001D5A3B7A1D5A0F26A00F0B1FA05463C
:103D00002246D5A10020FFF7F5F9FDE1A0790CAD21
:103D1000AFA3E279D4A185E80F00207908ADD2A342
:103D20006279D1A185E80F00A07804ADCEA3E27836
:103D3000CDA185E80F002078CBA36278CAA18DE8D9
:103D40000F0000E025E156F82820BFA3A1A1C7A0DD
:103D500000F086FA09E120689DA4C2B2C0F30721F1
:103D6000C0F30743000ECDE9000302A880E8160067
:103D7000726C29E0207810B1012803D0C4E194A12D
:103D8000C8A001E092A1C8A0CDE90001B26C9AE000
:103D9000207810B1022803D0B6E18DA1C4A001E0C3
:103DA0008BA1C4A0CDE90001F26C8CE0206888A44E
:103DB000C2B2C0F30721C0F30743000ECDE90003F0
:103DC00002A880E81600F26D9FA382A1BAA000F0BD
:103DD00047FACAE02079A4A36279A3A18DE80F0075
:103DE00056F8282098A37BA1BAA000F039FA788071
:103DF000002508E02068415DBAA000F031FA79881A
:103E00006D1C08447880A079A842F3D81FE056F8CA
:103E100028208DA36FA170A000F022FA78800025E1
:103E200012E0A4E053E044E03CE034E02DE01EE08A
:103E300017E05CE0A5E02068415DAAA000F010FA60
:103E400079886D1C08447880A079A842F3D860A1D5
:103E500062A000F005FA7988A7F80290084485B2BC
:103E600052E15BA12068CDE90001326F2BE02078A0
:103E700010B1012803D047E155A171A001E054A180
:103E800070A0CDE90001726F1DE051A12068CDE95D
:103E90000001B26F71E04EA12068CDE90001D6F8B3
:103EA00084206AE04AA12068CDE90001D6F8882084
:103EB00063E020788D4A46A102EBC0004068CDE95E
:103EC0000001D6F8AC2060A342A160A0EEE6206815
:103ED0003FA4C2B2C0F30721C0F30743000ECDE9EF
:103EE000000302A880E81600D6F8C4206CE7A07B87
:103EF0001CAD37A3E27B5CA185E80F00207B18ADE9
:103F000059A3627B58A185E80F00A07A14AD56A38F
:103F1000E27A55A185E80F00207A10AD52A3627AAB
:103F200051A185E80F00A0790CAD4FA3E2794EA115
:103F300085E80F00207908AD4BA362794AA185E896
:103F40000F00A07804AD48A3E27847A185E80F00F0
:103F5000207845A3627844A18DE80F0056F8282008
:103F600039A31CA1624800F07BF90546CCE018A1FA
:103F70002068CDE90001D6F8D02033A315A15DA0BB
:103F800094E6207800283FF487AE01283FF487AEFE
:103F9000BAE056F828200EA30EA10FA000F060F999
:103FA0000546ADE0340000202D2D2D4354524C5FCA
:103FB0004D41524B45522D2D2D3E61745F636D6412
:103FC0005F666F726D6174203A202573200A0000CD
:103FD0000D0A00004154000025732573257300006D
:103FE0002D2D2D4745545F4D41524B45522D2D2DC2
:103FF0003E61745F636D645F666F726D6174203AD9
:10400000202573200A0000003D3F00002573257322
:1040100025732573000000002D2D2D5345545F4D51
:1040200041524B45522D2D2D3E61745F636D645F8F
:10403000666F726D6174203A202573200A000000BB
:104040004F4646004F4E00003D000000257325738B
:104050002573257325730000534554204154453A78
:10406000202564200D0A00003A0000002573257306
:104070002573253032782573253032782573253025
:1040800032782573253032782573253032782573C0
:1040900025303278257325303278257325303278F3
:1040A00025730000414250004F5441410000000080
:1040B000410000004300000025732573257325305F
:1040C00032782530327825303278253032782573B1
:1040D000000000002573257325732564257325646E
:1040E0002573000025303278000000009C5B00083A
:1040F000306100082573257325732575257300002D
:1041000003A10020FEF7F6FF21B0E8B2BDE8F0837E
:10411000666F726D6174206E6F74207965742073A0
:104120007570706F72746564200A0D002DE9F04798
:1041300000242D4D16468A462C70A146A046AC8020
:104140004FF400712948FCF70AF84FF4967128489B
:10415000FCF705F8274F38E03878C00735D03878B5
:104160003C4620F0010038707888A8807A8822A127
:104170000020FEF7BFFFB5F90420211D1B48921E49
:10418000FBF7D4FFA4F80280052000F04CFE4FF4AA
:104190002071201DFBF7E3FFA88881B21348FFF7C9
:1041A00011FB052000F03FFE03202870B5F9043014
:1041B0000E4A18A10020FEF79DFFB5F904105246E3
:1041C0000A4800F001FB814606E00A2000F02BFEC1
:1041D000641CA4B2B442BFD94A4616A10020FEF71F
:1041E00089FF4846BDE8F0872400002050110020D8
:1041F000241000209C06002055736172745479705D
:1042000065322E72785F6C656E203D202564200D2E
:104210000A0000005573617274325265637644611E
:1042200074615F444D413A25732020256420200DA0
:104230000A0000002D2D2D2D2D3E526574436F6414
:1042400065203A2564200D0A0000000010B50146E3
:104250000248FFF7C9FAC0B210BD0000F80E0020F6
:104260000FB4074810B54088064AC0F5967110444F
:1042700003AB029A01F048FA10BC80B25DF814FB5F
:1042800024000020F80E00202DE9F0418AB00746F6
:1042900005A804A9CDE9001002AC154622461EA1CE
:1042A0003846231DFBF79CFFDFF884800646D8F8CC
:1042B000D000FBF75FFF0246791CD8F8D000FBF76F
:1042C00076FF58B1D8F85002FBF754FF0246791C2C
:1042D000D8F85002FBF76BFF60B10DE0042E0BD154
:1042E0005FF000002A1814F82010401C51730428B5
:1042F000F8DB0EE0042E03D001200AB0BDE8F08107
:104300005FF000002A1814F82010401C11710428D6
:10431000F8DB0320F1E70000252A732025303278EE
:104320003A253032783A253032783A2530327800E2
:10433000A858000810B5044607A10020FEF7DAFED1
:1043400002220CA12046FCF7F8FC401C01D0022000
:1043500010BD012010BD00002D2D2D2D2D2D2D2D3A
:104360002D2D2D2D2D617463746C5F6174200D0AE9
:10437000200000004F4B000010B586B003A9144682
:10438000009102AB01AA08A1FBF72AFF032802D083
:10439000012006B010BD019860700298207003984B
:1043A000A0700220F5E70000252A732025642D2542
:1043B000642C2564000000002DE9F04107468EB012
:1043C000154627A10020FEF795FE0DA80CA9CDE902
:1043D00004100BAA08A9039200910AAB09A8CDE921
:1043E000010306AC224625A13846231DFBF7F8FE43
:1043F000DFF8B4800646D8F89400FBF7BBFE02460F
:10440000791CD8F89400FBF7D2FE58B1D8F8A00078
:10441000FBF7B0FE0246791CD8F8A000FBF7C7FEF8
:1044200060B10DE0082E0BD15FF000002A1814F8DF
:104430002010401C51740828F8DB0EE0082E03D031
:1044400001200EB0BDE8F0815FF000002A1814F8DA
:104450002010401C51760828F8DB0320F1E700000B
:104460002D2D2D2D2D2D2D2D2D2D2D2D2D617463CB
:10447000746C5F657569200D0A200000252A732081
:10448000253032783A253032783A253032783A255C
:104490003032783A253032783A253032783A253041
:1044A00032783A2530327800A8580008FEB5144614
:1044B000124A002506460295D2E90102CDE9000222
:1044C0000B4632460EA12846FEF714FE02AA12A1A0
:1044D0003046FBF785FE012809D16846FBF74AFE06
:1044E000024602A96846FBF74CFE10B12570012078
:1044F000FEBD012020700820FEBD00009C58000871
:10450000617463746C5F6A6F696E203A2020257352
:1045100020202564200D0A00252A73202573000021
:104520002DE9F0419EB006461DA81CA9CDE90C104E
:1045300017461BAA1AABCDE90A3219A918A817AA5F
:1045400016ABCDE90801CDE9063215A9059114AAEB
:1045500013A8CDE9030210A9009112AB11A8CDE96F
:1045600001030EAC224642493046231DFBF738FEBC
:10457000DFF800810546D8F8AC00FBF7FBFD0246EA
:10458000711CD8F8AC00FBF712FE60B3D8F8B80085
:10459000FBF7F0FD0246711CD8F8B800FBF707FEE8
:1045A00068B3D8F8C400FBF7E5FD0246711CD8F8E3
:1045B000C400FBF7FCFD70B3D8F85C02FBF7DAFD32
:1045C0000246711CD8F85C02FBF7F1FD88B3D8F8FD
:1045D0006802FBF7CFFD0246711CD8F86802FBF7B2
:1045E000E6FD38B334E0102D32D100203A1814F82B
:1045F0002010401C82F821101028F7DB28E0102D35
:1046000026D100203A1814F82010401C82F83110EE
:104610001028F7DB29E0FFE7102D19D15FF000002B
:104620003A1814F82010401C82F841101028F7DBCB
:104630001BE000E00AE0102D0AD100203A1814F81F
:104640002010401C11721028F8DB0EE0102D03D052
:1046500001201EB0BDE8F0815FF000003A1814F8A8
:104660002010401C11761028F8DB0020F1E7000034
:1046700098610008A858000830B58DB0154607AB02
:1046800006AC09A908AACDE90043CDE9022104AC92
:1046900022460AA1231DFBF7A3FD062802D0012014
:1046A0000DB030BD5FF000002A1814F82010401C37
:1046B00011770628F8DB0320F2E70000252A732093
:1046C000253032783A253032783A253032783A251A
:1046D0003032783A253032783A253032780000008E
:1046E0007FB51446002515A20295D2E90012CDE946
:1046F000001214A102AA0968039113A1FBF770FD2F
:10470000012802D0012004B070BD6846FBF732FDDD
:10471000024602A96846FBF734FD48B103A8FBF73F
:1047200029FD024602A903A8FBF72BFD18B103E0FF
:104730000120206000E025600B20E4E74F54414158
:104740000000000041425000252A7320257300001C
:1047500010B5C8B016A114460968439103AB47AA27
:1047600046A98DE80E0045AB44AA12A1FBF738FD1F
:10477000052802D0012048B010BD4498A083459878
:10478000A076469860704798208143A8FBF7F2FC1A
:10479000024603A943A8FBF7F4FC30B1228903A920
:1047A0006068FBF7C3FC0720E5E701202070FAE70B
:1047B00041434B00252A732025643A25643A256439
:1047C0003A25643A257300002DE9F0478946904662
:1047D000054624A1FBF704FD0522294625A0FBF789
:1047E000E6FC48B128782B2812D042464946284694
:1047F000BDE8F047FFF79EBDEA7920A1303A0020DE
:10480000C8F80020FEF776FC4FF0FF30BDE8F087D7
:10481000224E002404EB440006EB80077868FBF787
:10482000A9FC0246691C7868FBF7C1FC28B1641C2E
:104830003F2CEFD36FF00100E8E704EB440006EBF8
:104840008006234616A100207268FEF753FCB36869
:104850002BB1424649462846BDE8F047184701209B
:10486000D4E70000252A73204552524F5228256470
:10487000290000004552524F520000002D2D2D2DD1
:104880002D2D3E617463746C5F7061727365206579
:1048900072726F722564200D0A000000A85800088B
:1048A0002D2D2D2D2D2D3E617463746C5F70617202
:1048B0007365202573202564200D0A00034800211C
:1048C000017081804181C1880181704724000020EE
:1048D0002DE9FE4305464C484FF00008CDF8008016
:1048E0000068019049A016460068029044466A4656
:1048F00047A12846FBF774FC012802D00120BDE83F
:10490000FE8301A8FBF736FC0246694601A8FBF7C7
:1049100038FC002867D002A8FBF72CFC0246694649
:1049200002A8FBF72EFC384F0C37F86CFBF722FC83
:104930000246691CF86CFBF73AFC00285CD0D7F8FB
:104940008800FBF717FC0246691CD7F88800FBF7C4
:104950002EFCE8B3D7F86001FBF70CFCD7F8603108
:104960000246691C1846FBF722FC90B3D7F8840175
:10497000FBF700FC0246691CD7F88401FBF717FC23
:1049800040B3D7F80C01FBF7F5FB0246691CD7F8DA
:104990000C01FBF70CFC60B3D7F84402FBF7EAFB11
:1049A000D7F844320246691C1846FBF700FC78B180
:1049B000D7F89802FBF7DEFBD7F898320246691C5D
:1049C0001846FBF7F4FBC8B1386FFBF7D3FB02E0E6
:1049D00012E00AE00BE03B6F0246691C1846FBF749
:1049E000E6FB68B10DE001249DE7747009E0B47046
:1049F00007E086F8048004E0347002E0F47000E020
:104A000074710B207BE700009C5800084F4646005D
:104A1000252A7320257300002DE9F04186B00D464C
:104A20000646144614216846FBF799FB6A462FA1F7
:104A30003046FBF7D5FB012803D0012006B0BDE8C6
:104A4000F0812C4FF869FBF795FB0246711CF86961
:104A5000FBF7ADFB08B3B846386CFBF78BFB02469F
:104A6000711C386CFBF7A3FB002700B3D8F8580083
:104A7000FBF780FB0246711CD8F85800FBF797FB48
:104A8000F8B1D8F80802FBF775FB0246711CD8F89C
:104A90000802FBF78CFBD8B125E004F122001021BD
:104AA0000446FBF75CFB6A1E6946204619E0C4F821
:104AB0001270C4F8167067836A1E694604F112000A
:104AC0000FE0C4F80170C4F80570A4F8097005E09F
:104AD000C4F80170C4F80570C4F809706A1E69460C
:104AE000601CFBF723FB0D20A8E70000252A73209C
:104AF00025730000A8580008F8B5044600201546A4
:104B000000906A4697A12046FBF76AFB012801D076
:104B10000120F8BD954EB06AFBF72CFB0246611CE4
:104B2000B06AFBF744FB00287ED0706BFBF722FBDA
:104B30000246611C706BFBF73AFB002875D0706E63
:104B4000FBF718FB0246611C706EFBF730FB002878
:104B50006CD0F06FFBF70EFB0246611CF06FFBF7A9
:104B600026FB00287ED0D6F82401FBF703FB024683
:104B7000611CD6F82401FBF71AFB002873D0D6F885
:104B80006C01FBF7F7FA0246611CD6F86C01FBF7E3
:104B90000EFB002868D0D6F87801FBF7EBFA024646
:104BA000611CD6F87801FBF702FB00287DD0D6F80F
:104BB0009001FBF7DFFA0246611CD6F89001FBF783
:104BC000F6FA002873D0D6F89C01FBF7D3FA024618
:104BD000611CD6F89C01FBF7EAFA002869D0D6F8E8
:104BE000B401FBF7C7FA0246611CD6F8B401FBF723
:104BF000DEFA002873D0D6F8C001FBF7BBFA0246F4
:104C0000611CD6F8C001FBF7D2FA00286AD0D6F8AA
:104C1000CC01FBF7AFFA0246611CD6F8CC01FBF7DA
:104C2000C6FA00286FD002E05DE05FE061E0D6F8F0
:104C3000D801FBF79FFA0246611CD6F8D801FBF7B2
:104C4000B6FA98B3D6F8E401FBF794FA0246611C71
:104C5000D6F8E401FBF7ABFA50B3D6F8F001FBF756
:104C600089FA02E048E04AE04EE00246611CD6F8CC
:104C7000F001FBF79CFA98B3D6F8FC01FBF77AFA3F
:104C80000246611CD6F8FC01FBF791FA48B3D6F84E
:104C90002002FBF76FFA0246611CD6F82002FBF7F0
:104CA00086FA78B3D6F82C0204E030E042E031E036
:104CB00044E032E0FBF75EFA0246611CD6F82C02B3
:104CC000FBF775FA78B3D6F87402FBF753FA02468D
:104CD000611CD6F87402FBF76AFA70B33FE01FE07C
:104CE0002FE031E020E00098E88138E00098288249
:104CF00035E00098A88132E0009828802FE00098E5
:104D0000A8702CE023E012E00098A88027E000982B
:104D1000E88024E00098287221E0009868721EE084
:104D20000098A8721BE015E00098E86017E0009872
:104D3000287414E00098688211E00EE00098A882C0
:104D40000DE00098E8820AE00098288307E00098C8
:104D5000A87604E00098A88301E0009868800D2000
:104D6000F8BD0000252A732025640000A85800081B
:104D70007CB515466A4610A101ABFBF731FA022853
:104D800001D001207CBD0198FBF772FCFBF779FC98
:104D900000220C4BFBF7FDFB06460C460098FBF788
:104DA00067FCFBF76EFC32462346FBF74BFBFBF739
:104DB0007BFC286006207CBD252A732025642E25D7
:104DC000645600000000594008B502F10801009146
:104DD000131D04A1FBF704FA032801D0012008BD2C
:104DE000042008BD252A732025642E25642E256401
:104DF0000000000030B50346FF2031240FE000BF63
:104E000013F8012B50400822050602D584EA400021
:104E100000E04000521EC0B212F0FF02F4D1491E61
:104E2000C9B2EDD230BDFCF7C9B8FCF7C7B8000075
:104E30002DE9F04F91B03A4CDDE91B57DDF868A041
:104E4000D4F800907E0601D5D4F804909C1E232C43
:104E500003D3002011B0BDE8F08FFC0701D030244F
:104E600000E02024A3460026BC0705D5002A03DA6B
:104E70002D265242AAF1010A0024EE46BAB100BF23
:104E8000B2FBF3FC03FB1C28B2FBF3F219F8088019
:104E90000EF80480641C002AF2D1AC4200DD2546E5
:104EA000AAEB0502FF074FF0200309D00CE03022E7
:104EB0008DF800200124F0E700F8013B491EC9D01D
:104EC000171EA2F10102F7DC36B100F8016B01E018
:104ED00000F801BB491EBDD0161EA2F10102F7DC8D
:104EE00030262F466D1EA7420ADD00F8016B491ED1
:104EF000F7D1AFE72E5D00F8016B491E01D1A9E79C
:104F00007546261EA4F10104F4DC03E000F8013B21
:104F1000491E9FD0141EA2F10102F7DC9AE700009F
:104F20007C0100200148007870470000000000204C
:104F300000252C460126FCF727FAFEF7B5F9FDF708
:104F4000E3FDFDF7B3FDFDF731FEFDF74FFEFDF785
:104F50006FFEFDF78FFEFDF7B5FE23A10020FEF7E3
:104F6000C9F842F21070FFF75EFFFDF781F94FF4C8
:104F7000FA773846FFF757FF23A10020FEF7BAF86B
:104F80003846FFF750FFFDF767FF27A10020FEF727
:104F9000B1F8FDF723FB2D4F01213846FCF7E6F869
:104FA00068B966B1322C02D0641CA4B217E00026A6
:104FB0000125344626A13046FEF79CF80FE0002478
:104FC0005DB100F081F8FFF7ADFF00B100252A4682
:104FD00027A10020FEF78EF801E0FDF76FFB0A2005
:104FE000FFF721FFD8E700002D2D2D2D2D2D3E534D
:104FF000797374656D2073746172696E672E2E2EDD
:105000002E2E2E0D0A0000002D2D2D2D2D2D3E496A
:1050100032435F53485433305F496E69742E2E2EED
:105020002E2E2E0D0A0000002D2D2D2D2D2D3E5241
:1050300065616454656D48756D5461736B496E6943
:10504000742E2E2E2E2E2E0D0A000000000002407F
:105050002323232323233E546573742070726F64CB
:10506000756374696E672E2E2E2E2E2E0D0A00008B
:105070002D2D2D2D2D2D3E54657374207465737464
:105080005F666C61672025642E2E2E2E2E2E0D0A53
:105090000000000070B50D460646002406E0325DB3
:1050A00006A10020FEF726F8641CE4B2AC42F6D359
:1050B000BDE8704003A10020FEF71CB8253032582F
:1050C0003A0000000D0A00002DE9F041694D6A4CDC
:1050D0004FF001062878C00715D06A88291D674857
:1050E000FBF724F869886548FEF76CFB4FF496706F
:1050F000FFF799FE31026148FBF731F8287820F07C
:1051000001002870A6705E4F4FF400413846FCF74E
:105110002DF818B9062000F025F96670564DE17893
:10512000062008354FF0050806290CD2DFE801F00B
:10513000030C27558087022000F014F951A10020AC
:10514000FDF7D8FFE67082E0022000F00BF957A1CE
:105150000020FDF7CFFF6420FFF765FEFDF7FEFEA0
:10516000FBF716FE00B2E080002870DD0220E07040
:10517000FEF73AF956A10020FDF7BCFF29E05CA13B
:105180000020FDF7B7FF022000F0ECF804213846BC
:10519000FBF7ECFF287008213846FBF7E7FF5D4F6F
:1051A000687040213846FBF7E1FFA870802138463F
:1051B000FBF7DCFFE87029786A781144AA7810447C
:1051C0000844C0B2207102282CD10320E070FEF701
:1051D000CDF86420FFF727FE39E04FA10020FDF74E
:1051E00089FF022000F0BEF810213846FBF7BEFF11
:1051F000287020213846FBF7B9FF687040213846F7
:10520000FBF7B4FFA87080213846FBF7AFFFE870CA
:1052100029786A781144AA7810440844C0B22071F1
:10522000022802D084F8038011E00420E0700EE030
:10523000E07042A10020FDF75DFF032005E0E07073
:1052400043A10020FDF756FF042000F08BF86178A1
:105250000020012905D1A178012902D1E178062990
:1052600002D02070BDE8F08126706070A070E07000
:10527000F8E70000180400200000002020090020AA
:105280000000024070726F647563742070726F6406
:105290007563745F746573745F70726F6365737345
:1052A0002073746172740D0A000000002D2D2D2DE5
:1052B0002D2D3E5265616454656D48756D54617362
:1052C0006B496E69742E2E2E2E2E2E0D0A000000B4
:1052D00070726F6475637420546573744750494FDE
:1052E0005F546573742073746172740D0A0000005A
:1052F00070726F6475637420546573744750494FBE
:105300005F5465737420482D2D2D2D2D2D3E0D0AD3
:10531000000000000004024070726F647563742026
:10532000546573744750494F5F54657374204C2D16
:105330002D2D2D2D2D3E0D0A0000000070726F6482
:105340007563742020737563636573730D0A0000C1
:1053500070726F64756374202066616C73650D0AEA
:105360000000000070B5054602462DA10020FDF7A3
:10537000C1FE4FF40061304C4E00092D4FD2DFE8E2
:1053800005F04E05160B054E230B4100002220466A
:10539000FBF7F7FE012204E001222046FBF7F1FEB5
:1053A000002231462046BDE87040FBF7EABE0022ED
:1053B0002046FBF7E6FE31462046FBF7DCFEC82020
:1053C000FFF731FD314625E00D462046FBF7D3FEC1
:1053D000C820FFF728FD29462046FBF7CCFEC82051
:1053E000FFF721FD29462046FBF7C5FEC820FFF741
:1053F0001AFD29462046FBF7BEFEC820FFF713FD25
:10540000294600E00D462046FBF7B5FEC820FFF711
:105410000AFD29462046BDE87040FBF7ACBE70BDD2
:10542000736574206C65642073746174652069739E
:105430002025640D0A000000000002402DE9F04123
:105440001D46174688460646069CFCF7C5FF3046B3
:10545000FCF788FFFDF70AF84046FCF783FFFDF7ED
:1054600005F83846FCF77EFFFDF700F8FCF7B4FFBF
:1054700046F00100FCF776FFFCF7F8FF114F6E1EB7
:1054800064B1002418E0B44201D0012000E0002003
:10549000FCF72EFF3919641C4875E4B2AC42F2D314
:1054A0000CE0B44201D0012000E00020FCF720FF16
:1054B0003919641C4870E4B2AC42F2D3BDE8F04143
:1054C000FCF7AEBF200A002070B515460E46044614
:1054D000FCF782FF2046FCF745FFFCF7C7FF30468C
:1054E000FCF740FFFCF7C2FF2846FCF73BFFFCF748
:1054F000BDFFBDE87040FCF793BF0FB410B504AA20
:10550000039900F003F810BC5DF814FB2DE9F74F88
:10551000ADF5027D0C460546FAF72CFE002706463F
:105520003B464FF0FF3B00BF14F8010B002877D03B
:10553000252830D100210A4614F8010B37283FD026
:1055400014DC32283CD008DC00286AD0252822D080
:10555000302835D0312846D132E0332830D03428B5
:105560002ED035282CD036283DD129E064282FD0E4
:1055700008DC382824D0392822D0442826D05828BE
:1055800031D12CE068280ED06C2816D0752821D097
:10559000782828D123E0002E6FDD297881423FD181
:1055A0006D1C761EC0E72078682802D042F0040205
:1055B000C2E742F00802641CBEE742F00102BBE70A
:1055C00001EB810100EB41013039B5E742F0010206
:1055D000032002E0032042F400620A2303E00320D8
:1055E00042F400621023002E47DD03289CD1491E9F
:1055F000B1F5007F01D340F2FF11491C4FF0000EBE
:105600005FEA010A42F4A040F146EC4652D02A7803
:10561000412A18D010DCA2F12B010F294AD201E057
:105620006BE06FE0DFE801F035463146462A2A2A72
:105630002A2A2A2A2A2A2A00612A11D00CDCA2F15D
:105640004201042936D80A2B34DDA9FB031820F4C3
:10565000A0406FF036080BE0A2F16201042929D8BE
:105660000A2B27DDA9FB031820F4A0406FF0560891
:1056700012EB080811EB080911E03DE0A9FB031843
:1056800020F4A0406FF02F08F2E7810401D44FF01E
:10569000010EC1040ED520F4805040F40050761E57
:1056A0000CF8012B002E05DDAAF101016D1C5FEA4B
:1056B000010AACD1410420D400218CF80010BEF1C5
:1056C000000F02D00022D9EB0209C10704D0849850
:1056D00004C8C2F800900CE0410704D5849804C8BF
:1056E000A2F8009005E00007F1D5849804C882F87C
:1056F00000907F1C849017E727B138460DF5057D93
:10570000BDE8F08F5846F9E72DE9FF4F83B0164604
:10571000B1F1000A074603DC002007B0BDE8F08FB6
:105720003C464FF0FF3BAAF101098CE0E21B4A45E1
:105730006FDA252802D004F8010B83E016F8011F68
:105740000020302900D1012030395A465D46092910
:105750000ED800256FF02F03314605EB850509783B
:1057600003EB45050D4416F8011F30390929F3D91B
:1057700031780A2369294DD006DC582944D06329A1
:1057800019D0642906D145E073291FD0752949D065
:1057900078293BD0252902D0252104F8011BA4EB50
:1057A000070CCC453EDA317891B304F8011B35E0A3
:1057B00004F8010B00E020206D1E002DF8DC069897
:1057C00010F8041B04F8011B06903BE0069802C881
:1057D00006905FEA010801D10FF284084046FAF70B
:1057E000C9FC202102E000BF04F8011B2A466D1EFF
:1057F0008242F9DC002104E018F8012B04F8012BA7
:10580000491C8142F8DB1DE040F04000102309E014
:1058100003E020E040F0020004E0761EA4EB070C59
:10582000CC450FDB069951F804CB06910095CDE9E4
:105830000120E11BAAEB010162462046491EFFF749
:10584000F7FA0446761C307800287FF46FAFE21B2D
:105850004A45BFF66BAF00202070E01B5DE70000FB
:105860003C4E554C4C3E0000030406080C1018201A
:1058700030000000000000000001020304060708D9
:1058800009000000000102030430313233343536A0
:105890003738394142434445460000004F4E00002E
:1058A0004A4F494E45440000000000004C6000088B
:1058B0003543000801000000CC5F0008794600086D
:1058C00002000000F45D0008194A0008030000000F
:1058D000905E0008F94A000804000000305D0008EE
:1058E000F94A0008050000009C5D0008194A0008FC
:1058F00006000000605D0008D148000807000000B5
:10590000E85D0008194A000808000000545E00081D
:10591000F94A0008090000008C5F0008D14800081F
:105920000A0000008C5D0008F94A00080B00000026
:10593000045E0008D14800080C000000805E0008EA
:10594000B94300080D000000705E0008B94300086C
:105950000E000000B8600008214500080F0000009C
:10596000E4600008214500081000000010610008F4
:105970002145000811000000F85F00088942000876
:1059800012000000B05D0008E146000813000000AE
:105990003860000851470008140000002C5E000821
:1059A000AD44000815000000785D0008AD44000813
:1059B00016000000405F0008D148000817000000F2
:1059C000145D00080000000018000000245F0008BB
:1059D000F94A000819000000EC5C00080000000013
:1059E0001A0000004C5D0008000000001B000000D1
:1059F000FC5C0008514700081C000000A86000087B
:105A0000514700081D000000045F0008D14800084D
:105A10001E00000088600008F94A00081F0000000E
:105A200074600008F94A000820000000C05F000808
:105A3000D14800082100000028600008F94A000849
:105A40002200000000600008F94A0008230000005E
:105A5000385E00087943000824000000C85D000893
:105A6000F94A0008250000009C5F0008F94A000878
:105A700026000000B05F0008F94A00082700000077
:105A8000B85E0008F94A000828000000C05E00085F
:105A9000F94A000829000000AC5E0008F94A000835
:105AA0002A000000DC5E0008F94A00082B00000014
:105AB0007C5F0008194A00082C0000000C600008F8
:105AC000C94D00082D00000024600008F94A0008B4
:105AD0002E000000605E0008F94A00082F00000058
